{
  "contractName": "Example",
  "abi": [
    {
      "constant": true,
      "inputs": [],
      "name": "logicShipB",
      "outputs": [
        {
          "name": "",
          "type": "address"
        }
      ],
      "payable": false,
      "stateMutability": "view",
      "type": "function"
    },
    {
      "constant": true,
      "inputs": [],
      "name": "logicShipA",
      "outputs": [
        {
          "name": "",
          "type": "address"
        }
      ],
      "payable": false,
      "stateMutability": "view",
      "type": "function"
    },
    {
      "constant": true,
      "inputs": [],
      "name": "lastDeployedShipProxy",
      "outputs": [
        {
          "name": "",
          "type": "address"
        }
      ],
      "payable": false,
      "stateMutability": "view",
      "type": "function"
    },
    {
      "anonymous": false,
      "inputs": [
        {
          "indexed": false,
          "name": "_contract",
          "type": "address"
        }
      ],
      "name": "NewContract",
      "type": "event"
    },
    {
      "constant": false,
      "inputs": [
        {
          "name": "ShipName",
          "type": "string"
        }
      ],
      "name": "step1_launchShip",
      "outputs": [],
      "payable": false,
      "stateMutability": "nonpayable",
      "type": "function"
    },
    {
      "constant": false,
      "inputs": [],
      "name": "step2_upgradeShip",
      "outputs": [],
      "payable": false,
      "stateMutability": "nonpayable",
      "type": "function"
    }
  ],
  "bytecode": "0x608060405234801561001057600080fd5b50612523806100206000396000f3fe608060405260043610610067576000357c010000000000000000000000000000000000000000000000000000000090048063305a313b1461006c578063552db774146100c3578063769894ff146100da57806386e95f74146101a2578063b5979e6c146101f9575b600080fd5b34801561007857600080fd5b50610081610250565b604051808273ffffffffffffffffffffffffffffffffffffffff1673ffffffffffffffffffffffffffffffffffffffff16815260200191505060405180910390f35b3480156100cf57600080fd5b506100d8610276565b005b3480156100e657600080fd5b506101a0600480360360208110156100fd57600080fd5b810190808035906020019064010000000081111561011a57600080fd5b82018360208201111561012c57600080fd5b8035906020019184600183028401116401000000008311171561014e57600080fd5b91908080601f016020809104026020016040519081016040528093929190818152602001838380828437600081840152601f19601f8201169050808301925050505050505091929192905050506104a9565b005b3480156101ae57600080fd5b506101b7610869565b604051808273ffffffffffffffffffffffffffffffffffffffff1673ffffffffffffffffffffffffffffffffffffffff16815260200191505060405180910390f35b34801561020557600080fd5b5061020e61088e565b604051808273ffffffffffffffffffffffffffffffffffffffff1673ffffffffffffffffffffffffffffffffffffffff16815260200191505060405180910390f35b600160009054906101000a900473ffffffffffffffffffffffffffffffffffffffff1681565b61027e6108b4565b604051809103906000f08015801561029a573d6000803e3d6000fd5b50600160006101000a81548173ffffffffffffffffffffffffffffffffffffffff021916908373ffffffffffffffffffffffffffffffffffffffff160217905550600260009054906101000a900473ffffffffffffffffffffffffffffffffffffffff1673ffffffffffffffffffffffffffffffffffffffff16636334229b600160009054906101000a900473ffffffffffffffffffffffffffffffffffffffff166040518263ffffffff167c0100000000000000000000000000000000000000000000000000000000028152600401808273ffffffffffffffffffffffffffffffffffffffff1673ffffffffffffffffffffffffffffffffffffffff168152602001915050600060405180830381600087803b1580156103ba57600080fd5b505af11580156103ce573d6000803e3d6000fd5b50505050600260009054906101000a900473ffffffffffffffffffffffffffffffffffffffff1673ffffffffffffffffffffffffffffffffffffffff1663b0a094bb336040518263ffffffff167c0100000000000000000000000000000000000000000000000000000000028152600401808273ffffffffffffffffffffffffffffffffffffffff1673ffffffffffffffffffffffffffffffffffffffff168152602001915050600060405180830381600087803b15801561048f57600080fd5b505af11580156104a3573d6000803e3d6000fd5b50505050565b6104b16108c4565b604051809103906000f0801580156104cd573d6000803e3d6000fd5b506000806101000a81548173ffffffffffffffffffffffffffffffffffffffff021916908373ffffffffffffffffffffffffffffffffffffffff1602179055507f387ea218537e939551af33bbc2dd6c53b1fee55d377a0dce288258f972cb3a9c6000809054906101000a900473ffffffffffffffffffffffffffffffffffffffff16604051808273ffffffffffffffffffffffffffffffffffffffff1673ffffffffffffffffffffffffffffffffffffffff16815260200191505060405180910390a1803060405160240180806020018373ffffffffffffffffffffffffffffffffffffffff1673ffffffffffffffffffffffffffffffffffffffff168152602001828103825284818151815260200191508051906020019080838360005b838110156106085780820151818401526020810190506105ed565b50505050905090810190601f1680156106355780820380516001836020036101000a031916815260200191505b5093505050506040516020818303038152906040527f1e4dacbb000000000000000000000000000000000000000000000000000000007bffffffffffffffffffffffffffffffffffffffffffffffffffffffff19166020820180517bffffffffffffffffffffffffffffffffffffffffffffffffffffffff83818316178352505050506000809054906101000a900473ffffffffffffffffffffffffffffffffffffffff166106e26108d4565b80806020018373ffffffffffffffffffffffffffffffffffffffff1673ffffffffffffffffffffffffffffffffffffffff168152602001828103825284818151815260200191508051906020019080838360005b83811015610751578082015181840152602081019050610736565b50505050905090810190601f16801561077e5780820380516001836020036101000a031916815260200191505b509350505050604051809103906000f0801580156107a0573d6000803e3d6000fd5b50600260006101000a81548173ffffffffffffffffffffffffffffffffffffffff021916908373ffffffffffffffffffffffffffffffffffffffff1602179055507f387ea218537e939551af33bbc2dd6c53b1fee55d377a0dce288258f972cb3a9c600260009054906101000a900473ffffffffffffffffffffffffffffffffffffffff16604051808273ffffffffffffffffffffffffffffffffffffffff1673ffffffffffffffffffffffffffffffffffffffff16815260200191505060405180910390a150565b6000809054906101000a900473ffffffffffffffffffffffffffffffffffffffff1681565b600260009054906101000a900473ffffffffffffffffffffffffffffffffffffffff1681565b604051610f3f806108e583390190565b604051610a608061182483390190565b604051610274806122848339019056fe608060405234801561001057600080fd5b50610f1f806100206000396000f3fe6080604052600436106100b4576000357c01000000000000000000000000000000000000000000000000000000009004806306fdde03146100b95780631e4dacbb1461014957806352d1902d1461023157806354d7226e1461025c5780636334229b146102735780637b103999146102c4578063b0a094bb14610354578063bf61aa74146103a5578063c5287966146103d0578063edfdf0781461043c578063ee2e0ac8146104b7578063f55ebb8f146104f2575b600080fd5b3480156100c557600080fd5b506100ce610549565b6040518080602001828103825283818151815260200191508051906020019080838360005b8381101561010e5780820151818401526020810190506100f3565b50505050905090810190601f16801561013b5780820380516001836020036101000a031916815260200191505b509250505060405180910390f35b34801561015557600080fd5b5061022f6004803603604081101561016c57600080fd5b810190808035906020019064010000000081111561018957600080fd5b82018360208201111561019b57600080fd5b803590602001918460018302840111640100000000831117156101bd57600080fd5b91908080601f016020809104026020016040519081016040528093929190818152602001838380828437600081840152601f19601f820116905080830192505050505050509192919290803573ffffffffffffffffffffffffffffffffffffffff1690602001909291905050506105e7565b005b34801561023d57600080fd5b5061024661075d565b6040518082815260200191505060405180910390f35b34801561026857600080fd5b50610271610788565b005b34801561027f57600080fd5b506102c26004803603602081101561029657600080fd5b81019080803573ffffffffffffffffffffffffffffffffffffffff169060200190929190505050610817565b005b3480156102d057600080fd5b506102d96108e8565b6040518080602001828103825283818151815260200191508051906020019080838360005b838110156103195780820151818401526020810190506102fe565b50505050905090810190601f1680156103465780820380516001836020036101000a031916815260200191505b509250505060405180910390f35b34801561036057600080fd5b506103a36004803603602081101561037757600080fd5b81019080803573ffffffffffffffffffffffffffffffffffffffff169060200190929190505050610986565b005b3480156103b157600080fd5b506103ba610b17565b6040518082815260200191505060405180910390f35b3480156103dc57600080fd5b506103e5610b1d565b6040518080602001828103825283818151815260200191508051906020019060200280838360005b8381101561042857808201518184015260208101905061040d565b505050509050019250505060405180910390f35b34801561044857600080fd5b506104756004803603602081101561045f57600080fd5b8101908080359060200190929190505050610bfe565b604051808273ffffffffffffffffffffffffffffffffffffffff1673ffffffffffffffffffffffffffffffffffffffff16815260200191505060405180910390f35b3480156104c357600080fd5b506104f0600480360360208110156104da57600080fd5b8101908080359060200190929190505050610c3c565b005b3480156104fe57600080fd5b50610507610ccc565b604051808273ffffffffffffffffffffffffffffffffffffffff1673ffffffffffffffffffffffffffffffffffffffff16815260200191505060405180910390f35b60008054600181600116156101000203166002900480601f0160208091040260200160405190810160405280929190818152602001828054600181600116156101000203166002900480156105df5780601f106105b4576101008083540402835291602001916105df565b820191906000526020600020905b8154815290600101906020018083116105c257829003601f168201915b505050505081565b600073ffffffffffffffffffffffffffffffffffffffff16600360009054906101000a900473ffffffffffffffffffffffffffffffffffffffff1673ffffffffffffffffffffffffffffffffffffffff161415156106ad576040517f08c379a00000000000000000000000000000000000000000000000000000000081526004018080602001828103825260178152602001807f5472656164206c696768746c7920636f72706f72616c2100000000000000000081525060200191505060405180910390fd5b81600090805190602001906106c3929190610e4e565b506040805190810160405280600481526020017f4e583031000000000000000000000000000000000000000000000000000000008152506001908051906020019061070f929190610e4e565b5080600360006101000a81548173ffffffffffffffffffffffffffffffffffffffff021916908373ffffffffffffffffffffffffffffffffffffffff16021790555060036002819055505050565b60007fc5f16f0fcc639fa48a6947836d9850f504798523bf8c9a3a87d5876cf622bcf7600102905090565b6000600254111515610802576040517f08c379a000000000000000000000000000000000000000000000000000000000815260040180806020018281038252600c8152602001807f4e6f204675656c204c656674000000000000000000000000000000000000000081525060200191505060405180910390fd5b60026000815480929190600190039190505550565b600360009054906101000a900473ffffffffffffffffffffffffffffffffffffffff1673ffffffffffffffffffffffffffffffffffffffff163373ffffffffffffffffffffffffffffffffffffffff161415156108dc576040517f08c379a000000000000000000000000000000000000000000000000000000000815260040180806020018281038252601b8152602001807f4f6e6c7920756e646572206361707461696e2773206f7264657273000000000081525060200191505060405180910390fd5b6108e581610cf2565b50565b60018054600181600116156101000203166002900480601f01602080910402602001604051908101604052809291908181526020018280546001816001161561010002031660029004801561097e5780601f106109535761010080835404028352916020019161097e565b820191906000526020600020905b81548152906001019060200180831161096157829003601f168201915b505050505081565b600360009054906101000a900473ffffffffffffffffffffffffffffffffffffffff1673ffffffffffffffffffffffffffffffffffffffff163373ffffffffffffffffffffffffffffffffffffffff16141515610a4b576040517f08c379a000000000000000000000000000000000000000000000000000000000815260040180806020018281038252601b8152602001807f4f6e6c7920756e646572206361707461696e2773206f7264657273000000000081525060200191505060405180910390fd5b6004600360009054906101000a900473ffffffffffffffffffffffffffffffffffffffff1690806001815401808255809150509060018203906000526020600020016000909192909190916101000a81548173ffffffffffffffffffffffffffffffffffffffff021916908373ffffffffffffffffffffffffffffffffffffffff1602179055505080600360006101000a81548173ffffffffffffffffffffffffffffffffffffffff021916908373ffffffffffffffffffffffffffffffffffffffff16021790555050565b60025481565b6060600480549050604051908082528060200260200182016040528015610b535781602001602082028038833980820191505090505b50905060008090505b600480549050811015610bfa57600481815481101515610b7857fe5b9060005260206000200160009054906101000a900473ffffffffffffffffffffffffffffffffffffffff168282815181101515610bb157fe5b9060200190602002019073ffffffffffffffffffffffffffffffffffffffff16908173ffffffffffffffffffffffffffffffffffffffff16815250508080600101915050610b5c565b5090565b600481815481101515610c0d57fe5b906000526020600020016000915054906101000a900473ffffffffffffffffffffffffffffffffffffffff1681565b6002548160025401111515610cb9576040517f08c379a000000000000000000000000000000000000000000000000000000000815260040180806020018281038252600c8152602001807f416c72656164792066756c6c000000000000000000000000000000000000000081525060200191505060405180910390fd5b8060026000828254019250508190555050565b600360009054906101000a900473ffffffffffffffffffffffffffffffffffffffff1681565b8073ffffffffffffffffffffffffffffffffffffffff166352d1902d6040518163ffffffff167c010000000000000000000000000000000000000000000000000000000002815260040160206040518083038186803b158015610d5457600080fd5b505afa158015610d68573d6000803e3d6000fd5b505050506040513d6020811015610d7e57600080fd5b81019080805190602001909291905050507fc5f16f0fcc639fa48a6947836d9850f504798523bf8c9a3a87d5876cf622bcf7600102141515610e28576040517f08c379a000000000000000000000000000000000000000000000000000000000815260040180806020018281038252600e8152602001807f4e6f7420636f6d70617469626c6500000000000000000000000000000000000081525060200191505060405180910390fd5b807fc5f16f0fcc639fa48a6947836d9850f504798523bf8c9a3a87d5876cf622bcf75550565b828054600181600116156101000203166002900490600052602060002090601f016020900481019282601f10610e8f57805160ff1916838001178555610ebd565b82800160010185558215610ebd579182015b82811115610ebc578251825591602001919060010190610ea1565b5b509050610eca9190610ece565b5090565b610ef091905b80821115610eec576000816000905550600101610ed4565b5090565b9056fea165627a7a723058201dfb0c4785e6ba11323f265d3fa90b2d5c51d0ef6ece054689b12562ae56e3a70029608060405234801561001057600080fd5b50610a40806100206000396000f3fe608060405260043610610088576000357c01000000000000000000000000000000000000000000000000000000009004806306fdde031461008d5780631e4dacbb1461011d57806352d1902d1461020557806354d7226e146102305780636334229b146102475780637b10399914610298578063bf61aa7414610328578063f55ebb8f14610353575b600080fd5b34801561009957600080fd5b506100a26103aa565b6040518080602001828103825283818151815260200191508051906020019080838360005b838110156100e25780820151818401526020810190506100c7565b50505050905090810190601f16801561010f5780820380516001836020036101000a031916815260200191505b509250505060405180910390f35b34801561012957600080fd5b506102036004803603604081101561014057600080fd5b810190808035906020019064010000000081111561015d57600080fd5b82018360208201111561016f57600080fd5b8035906020019184600183028401116401000000008311171561019157600080fd5b91908080601f016020809104026020016040519081016040528093929190818152602001838380828437600081840152601f19601f820116905080830192505050505050509192919290803573ffffffffffffffffffffffffffffffffffffffff169060200190929190505050610448565b005b34801561021157600080fd5b5061021a6105be565b6040518082815260200191505060405180910390f35b34801561023c57600080fd5b506102456105e9565b005b34801561025357600080fd5b506102966004803603602081101561026a57600080fd5b81019080803573ffffffffffffffffffffffffffffffffffffffff169060200190929190505050610678565b005b3480156102a457600080fd5b506102ad610749565b6040518080602001828103825283818151815260200191508051906020019080838360005b838110156102ed5780820151818401526020810190506102d2565b50505050905090810190601f16801561031a5780820380516001836020036101000a031916815260200191505b509250505060405180910390f35b34801561033457600080fd5b5061033d6107e7565b6040518082815260200191505060405180910390f35b34801561035f57600080fd5b506103686107ed565b604051808273ffffffffffffffffffffffffffffffffffffffff1673ffffffffffffffffffffffffffffffffffffffff16815260200191505060405180910390f35b60008054600181600116156101000203166002900480601f0160208091040260200160405190810160405280929190818152602001828054600181600116156101000203166002900480156104405780601f1061041557610100808354040283529160200191610440565b820191906000526020600020905b81548152906001019060200180831161042357829003601f168201915b505050505081565b600073ffffffffffffffffffffffffffffffffffffffff16600360009054906101000a900473ffffffffffffffffffffffffffffffffffffffff1673ffffffffffffffffffffffffffffffffffffffff1614151561050e576040517f08c379a00000000000000000000000000000000000000000000000000000000081526004018080602001828103825260178152602001807f5472656164206c696768746c7920636f72706f72616c2100000000000000000081525060200191505060405180910390fd5b816000908051906020019061052492919061096f565b506040805190810160405280600481526020017f4e583031000000000000000000000000000000000000000000000000000000008152506001908051906020019061057092919061096f565b5080600360006101000a81548173ffffffffffffffffffffffffffffffffffffffff021916908373ffffffffffffffffffffffffffffffffffffffff16021790555060036002819055505050565b60007fc5f16f0fcc639fa48a6947836d9850f504798523bf8c9a3a87d5876cf622bcf7600102905090565b6000600254111515610663576040517f08c379a000000000000000000000000000000000000000000000000000000000815260040180806020018281038252600c8152602001807f4e6f204675656c204c656674000000000000000000000000000000000000000081525060200191505060405180910390fd5b60026000815480929190600190039190505550565b600360009054906101000a900473ffffffffffffffffffffffffffffffffffffffff1673ffffffffffffffffffffffffffffffffffffffff163373ffffffffffffffffffffffffffffffffffffffff1614151561073d576040517f08c379a000000000000000000000000000000000000000000000000000000000815260040180806020018281038252601b8152602001807f4f6e6c7920756e646572206361707461696e2773206f7264657273000000000081525060200191505060405180910390fd5b61074681610813565b50565b60018054600181600116156101000203166002900480601f0160208091040260200160405190810160405280929190818152602001828054600181600116156101000203166002900480156107df5780601f106107b4576101008083540402835291602001916107df565b820191906000526020600020905b8154815290600101906020018083116107c257829003601f168201915b505050505081565b60025481565b600360009054906101000a900473ffffffffffffffffffffffffffffffffffffffff1681565b8073ffffffffffffffffffffffffffffffffffffffff166352d1902d6040518163ffffffff167c010000000000000000000000000000000000000000000000000000000002815260040160206040518083038186803b15801561087557600080fd5b505afa158015610889573d6000803e3d6000fd5b505050506040513d602081101561089f57600080fd5b81019080805190602001909291905050507fc5f16f0fcc639fa48a6947836d9850f504798523bf8c9a3a87d5876cf622bcf7600102141515610949576040517f08c379a000000000000000000000000000000000000000000000000000000000815260040180806020018281038252600e8152602001807f4e6f7420636f6d70617469626c6500000000000000000000000000000000000081525060200191505060405180910390fd5b807fc5f16f0fcc639fa48a6947836d9850f504798523bf8c9a3a87d5876cf622bcf75550565b828054600181600116156101000203166002900490600052602060002090601f016020900481019282601f106109b057805160ff19168380011785556109de565b828001600101855582156109de579182015b828111156109dd5782518255916020019190600101906109c2565b5b5090506109eb91906109ef565b5090565b610a1191905b80821115610a0d5760008160009055506001016109f5565b5090565b9056fea165627a7a72305820d593fb14dac25f39ecf8c2bb66ae5fda7eb2f7ecef011075ef90ff6a637fb41f0029608060405234801561001057600080fd5b506040516102743803806102748339810180604052604081101561003357600080fd5b81019080805164010000000081111561004b57600080fd5b8281019050602081018481111561006157600080fd5b815185600182028301116401000000008211171561007e57600080fd5b505092919060200180519060200190929190505050807fc5f16f0fcc639fa48a6947836d9850f504798523bf8c9a3a87d5876cf622bcf755600060608273ffffffffffffffffffffffffffffffffffffffff16846040518082805190602001908083835b60208310151561010757805182526020820191506020810190506020830392506100e2565b6001836020036101000a038019825116818451168082178552505050505050905001915050600060405180830381855af49150503d8060008114610167576040519150601f19603f3d011682016040523d82523d6000602084013e61016c565b606091505b50915091508115156101e6576040517f08c379a00000000000000000000000000000000000000000000000000000000081526004018080602001828103825260138152602001807f436f6e737472756374696f6e206661696c65640000000000000000000000000081525060200191505060405180910390fd5b50505050607c806101f86000396000f3fe60806040527fc5f16f0fcc639fa48a6947836d9850f504798523bf8c9a3a87d5876cf622bcf7543660008037600080366000846127105a03f43d806000803e8160008114604b57816000f35b816000fdfea165627a7a7230582045500894262ffb792b6657c27fc37f786b9e346828c352114941099fb20c876c0029a165627a7a7230582080b9b18757826e8ece969380cc1e0c14a75050cb8f4593236a766ad39c2120ab0029",
  "source": "pragma solidity ^0.5.1;\n\nimport \"./Proxy.sol\"; \nimport \"./ShipB.sol\"; \nimport \"./ShipA.sol\"; \n\ncontract Example {\n    \n    event NewContract(address _contract);\n    \n    address public logicShipA;\n    address public logicShipB;\n    \n    \n    address public lastDeployedShipProxy;\n    \n    // Deploy your logic reference contract for Ship of model A\n    // Set up your new ship (proxy) being initialized as Ship A\n    function step1_launchShip(string memory ShipName) public {\n        logicShipA = address(new ShipA());\n        emit NewContract(logicShipA);\n        lastDeployedShipProxy = address(new Proxy(abi.encodeWithSignature(\"launch(string,address)\", ShipName, address(this)), logicShipA));\n        emit NewContract(lastDeployedShipProxy);\n    }\n    \n    // Once you've travelled a lot you are going to noticed you cant refuel with the ShipA model\n    // stupid design! \n    \n    // Now you deploy a new reference: ShipB; with perks!\n    // You then transfer all personel and goods to the new model\n    // and promote someone else to captain (you!)\n    function step2_upgradeShip() public {\n        logicShipB = address(new ShipB()); \n        ShipA(lastDeployedShipProxy).abandonShipTo(logicShipB);\n        ShipB(lastDeployedShipProxy).promoteToCaptain(msg.sender);\n    }\n}",
  "sourcePath": "/home/thisguy/repos/proxy_101/contracts/Example.sol",
  "compiler": {
    "name": "solc",
    "version": "0.5.1+commit.c8a2cb62.Emscripten.clang"
  },
  "schemaVersion": "3.0.1",
  "updatedAt": "2019-08-04T15:04:42.294Z",
  "devdoc": {
    "methods": {}
  },
  "userdoc": {
    "methods": {}
  }
}