{
  "contractName": "ProxyFactory",
  "abi": [
    {
      "anonymous": false,
      "inputs": [
        {
          "indexed": false,
          "name": "deployedAddress",
          "type": "address"
        }
      ],
      "name": "NewProxy",
      "type": "event"
    },
    {
      "constant": false,
      "inputs": [
        {
          "name": "constructData",
          "type": "bytes"
        },
        {
          "name": "codeAt",
          "type": "address"
        }
      ],
      "name": "createProxy",
      "outputs": [],
      "payable": false,
      "stateMutability": "nonpayable",
      "type": "function"
    }
  ],
  "bytecode": "0x608060405234801561001057600080fd5b50610507806100206000396000f3fe60806040526004361061003b576000357c010000000000000000000000000000000000000000000000000000000090048063c59dff9d14610040575b600080fd5b34801561004c57600080fd5b506101266004803603604081101561006357600080fd5b810190808035906020019064010000000081111561008057600080fd5b82018360208201111561009257600080fd5b803590602001918460018302840111640100000000831117156100b457600080fd5b91908080601f016020809104026020016040519081016040528093929190818152602001838380828437600081840152601f19601f820116905080830192505050505050509192919290803573ffffffffffffffffffffffffffffffffffffffff169060200190929190505050610128565b005b7f7a46f103e0030643418938032b77c1ee3fb4e8089dba972de759fb239246469c8282610153610257565b80806020018373ffffffffffffffffffffffffffffffffffffffff1673ffffffffffffffffffffffffffffffffffffffff168152602001828103825284818151815260200191508051906020019080838360005b838110156101c25780820151818401526020810190506101a7565b50505050905090810190601f1680156101ef5780820380516001836020036101000a031916815260200191505b509350505050604051809103906000f080158015610211573d6000803e3d6000fd5b50604051808273ffffffffffffffffffffffffffffffffffffffff1673ffffffffffffffffffffffffffffffffffffffff16815260200191505060405180910390a15050565b604051610274806102688339019056fe608060405234801561001057600080fd5b506040516102743803806102748339810180604052604081101561003357600080fd5b81019080805164010000000081111561004b57600080fd5b8281019050602081018481111561006157600080fd5b815185600182028301116401000000008211171561007e57600080fd5b505092919060200180519060200190929190505050807fc5f16f0fcc639fa48a6947836d9850f504798523bf8c9a3a87d5876cf622bcf755600060608273ffffffffffffffffffffffffffffffffffffffff16846040518082805190602001908083835b60208310151561010757805182526020820191506020810190506020830392506100e2565b6001836020036101000a038019825116818451168082178552505050505050905001915050600060405180830381855af49150503d8060008114610167576040519150601f19603f3d011682016040523d82523d6000602084013e61016c565b606091505b50915091508115156101e6576040517f08c379a00000000000000000000000000000000000000000000000000000000081526004018080602001828103825260138152602001807f436f6e737472756374696f6e206661696c65640000000000000000000000000081525060200191505060405180910390fd5b50505050607c806101f86000396000f3fe60806040527fc5f16f0fcc639fa48a6947836d9850f504798523bf8c9a3a87d5876cf622bcf7543660008037600080366000846127105a03f43d806000803e8160008114604b57816000f35b816000fdfea165627a7a7230582045500894262ffb792b6657c27fc37f786b9e346828c352114941099fb20c876c0029a165627a7a72305820aa20131fb4ad13215e1635f56b57698ef32286afddba7d52e13b8c1312f777df0029",
  "source": "pragma solidity ^0.5.1;\n\nimport \"./Proxy.sol\";\n\ncontract ProxyFactory {\n    \n    event NewProxy(address deployedAddress);\n    \n    function createProxy(bytes memory constructData, address codeAt) public {\n        emit NewProxy(address(new Proxy(constructData, codeAt)));\n    }\n}",
  "sourcePath": "/home/thisguy/repos/proxy_101/contracts/ProxyFactory.sol",
  "compiler": {
    "name": "solc",
    "version": "0.5.1+commit.c8a2cb62.Emscripten.clang"
  },
  "schemaVersion": "3.0.1",
  "updatedAt": "2019-08-04T15:04:42.286Z",
  "devdoc": {
    "methods": {}
  },
  "userdoc": {
    "methods": {}
  }
}