{
  "contractName": "Proxiable",
  "abi": [
    {
      "constant": true,
      "inputs": [],
      "name": "proxiableUUID",
      "outputs": [
        {
          "name": "",
          "type": "bytes32"
        }
      ],
      "payable": false,
      "stateMutability": "pure",
      "type": "function"
    }
  ],
  "bytecode": "0x6080604052348015600f57600080fd5b5060bd8061001e6000396000f3fe6080604052600436106039576000357c01000000000000000000000000000000000000000000000000000000009004806352d1902d14603e575b600080fd5b348015604957600080fd5b5060506066565b6040518082815260200191505060405180910390f35b60007fc5f16f0fcc639fa48a6947836d9850f504798523bf8c9a3a87d5876cf622bcf760010290509056fea165627a7a72305820f5bd98d91ca95f32b15818995dc1b209e0ff86cc128c97f35e18acaa8b61706b0029",
  "source": "pragma solidity ^0.5.1;\n\ncontract Proxiable {\n    // Code position in storage is keccak256(\"PROXIABLE\") = \"0xc5f16f0fcc639fa48a6947836d9850f504798523bf8c9a3a87d5876cf622bcf7\"\n    \n    function updateCodeAddress(address newAddress) internal {\n        require(\n            bytes32(0xc5f16f0fcc639fa48a6947836d9850f504798523bf8c9a3a87d5876cf622bcf7) == Proxiable(newAddress).proxiableUUID(),\n            \"Not compatible\"\n        );\n        assembly { // solium-disable-line\n            sstore(0xc5f16f0fcc639fa48a6947836d9850f504798523bf8c9a3a87d5876cf622bcf7, newAddress)\n        }\n    }\n    function proxiableUUID() public pure returns (bytes32) {\n        return 0xc5f16f0fcc639fa48a6947836d9850f504798523bf8c9a3a87d5876cf622bcf7;\n    }\n}",
  "sourcePath": "/home/thisguy/repos/proxy_101/contracts/Proxiable.sol",
  "compiler": {
    "name": "solc",
    "version": "0.5.1+commit.c8a2cb62.Emscripten.clang"
  },
  "schemaVersion": "3.0.1",
  "updatedAt": "2019-08-04T15:04:42.284Z",
  "devdoc": {
    "methods": {}
  },
  "userdoc": {
    "methods": {}
  }
}