{
  "contractName": "ShipA",
  "abi": [
    {
      "constant": true,
      "inputs": [],
      "name": "name",
      "outputs": [
        {
          "name": "",
          "type": "string"
        }
      ],
      "payable": false,
      "stateMutability": "view",
      "type": "function",
      "signature": "0x06fdde03"
    },
    {
      "constant": true,
      "inputs": [],
      "name": "proxiableUUID",
      "outputs": [
        {
          "name": "",
          "type": "bytes32"
        }
      ],
      "payable": false,
      "stateMutability": "pure",
      "type": "function",
      "signature": "0x52d1902d"
    },
    {
      "constant": true,
      "inputs": [],
      "name": "registry",
      "outputs": [
        {
          "name": "",
          "type": "string"
        }
      ],
      "payable": false,
      "stateMutability": "view",
      "type": "function",
      "signature": "0x7b103999"
    },
    {
      "constant": true,
      "inputs": [],
      "name": "fuelSupply",
      "outputs": [
        {
          "name": "",
          "type": "uint256"
        }
      ],
      "payable": false,
      "stateMutability": "view",
      "type": "function",
      "signature": "0xbf61aa74"
    },
    {
      "constant": true,
      "inputs": [],
      "name": "captain",
      "outputs": [
        {
          "name": "",
          "type": "address"
        }
      ],
      "payable": false,
      "stateMutability": "view",
      "type": "function",
      "signature": "0xf55ebb8f"
    },
    {
      "constant": false,
      "inputs": [
        {
          "name": "_name",
          "type": "string"
        },
        {
          "name": "_captain",
          "type": "address"
        }
      ],
      "name": "launch",
      "outputs": [],
      "payable": false,
      "stateMutability": "nonpayable",
      "type": "function",
      "signature": "0x1e4dacbb"
    },
    {
      "constant": false,
      "inputs": [],
      "name": "travel",
      "outputs": [],
      "payable": false,
      "stateMutability": "nonpayable",
      "type": "function",
      "signature": "0x54d7226e"
    },
    {
      "constant": false,
      "inputs": [
        {
          "name": "newShip",
          "type": "address"
        }
      ],
      "name": "abandonShipTo",
      "outputs": [],
      "payable": false,
      "stateMutability": "nonpayable",
      "type": "function",
      "signature": "0x6334229b"
    }
  ],
  "bytecode": "0x608060405234801561001057600080fd5b50610a40806100206000396000f3fe608060405260043610610088576000357c01000000000000000000000000000000000000000000000000000000009004806306fdde031461008d5780631e4dacbb1461011d57806352d1902d1461020557806354d7226e146102305780636334229b146102475780637b10399914610298578063bf61aa7414610328578063f55ebb8f14610353575b600080fd5b34801561009957600080fd5b506100a26103aa565b6040518080602001828103825283818151815260200191508051906020019080838360005b838110156100e25780820151818401526020810190506100c7565b50505050905090810190601f16801561010f5780820380516001836020036101000a031916815260200191505b509250505060405180910390f35b34801561012957600080fd5b506102036004803603604081101561014057600080fd5b810190808035906020019064010000000081111561015d57600080fd5b82018360208201111561016f57600080fd5b8035906020019184600183028401116401000000008311171561019157600080fd5b91908080601f016020809104026020016040519081016040528093929190818152602001838380828437600081840152601f19601f820116905080830192505050505050509192919290803573ffffffffffffffffffffffffffffffffffffffff169060200190929190505050610448565b005b34801561021157600080fd5b5061021a6105be565b6040518082815260200191505060405180910390f35b34801561023c57600080fd5b506102456105e9565b005b34801561025357600080fd5b506102966004803603602081101561026a57600080fd5b81019080803573ffffffffffffffffffffffffffffffffffffffff169060200190929190505050610678565b005b3480156102a457600080fd5b506102ad610749565b6040518080602001828103825283818151815260200191508051906020019080838360005b838110156102ed5780820151818401526020810190506102d2565b50505050905090810190601f16801561031a5780820380516001836020036101000a031916815260200191505b509250505060405180910390f35b34801561033457600080fd5b5061033d6107e7565b6040518082815260200191505060405180910390f35b34801561035f57600080fd5b506103686107ed565b604051808273ffffffffffffffffffffffffffffffffffffffff1673ffffffffffffffffffffffffffffffffffffffff16815260200191505060405180910390f35b60008054600181600116156101000203166002900480601f0160208091040260200160405190810160405280929190818152602001828054600181600116156101000203166002900480156104405780601f1061041557610100808354040283529160200191610440565b820191906000526020600020905b81548152906001019060200180831161042357829003601f168201915b505050505081565b600073ffffffffffffffffffffffffffffffffffffffff16600360009054906101000a900473ffffffffffffffffffffffffffffffffffffffff1673ffffffffffffffffffffffffffffffffffffffff1614151561050e576040517f08c379a00000000000000000000000000000000000000000000000000000000081526004018080602001828103825260178152602001807f5472656164206c696768746c7920636f72706f72616c2100000000000000000081525060200191505060405180910390fd5b816000908051906020019061052492919061096f565b506040805190810160405280600481526020017f4e583031000000000000000000000000000000000000000000000000000000008152506001908051906020019061057092919061096f565b5080600360006101000a81548173ffffffffffffffffffffffffffffffffffffffff021916908373ffffffffffffffffffffffffffffffffffffffff16021790555060036002819055505050565b60007fc5f16f0fcc639fa48a6947836d9850f504798523bf8c9a3a87d5876cf622bcf7600102905090565b6000600254111515610663576040517f08c379a000000000000000000000000000000000000000000000000000000000815260040180806020018281038252600c8152602001807f4e6f204675656c204c656674000000000000000000000000000000000000000081525060200191505060405180910390fd5b60026000815480929190600190039190505550565b600360009054906101000a900473ffffffffffffffffffffffffffffffffffffffff1673ffffffffffffffffffffffffffffffffffffffff163373ffffffffffffffffffffffffffffffffffffffff1614151561073d576040517f08c379a000000000000000000000000000000000000000000000000000000000815260040180806020018281038252601b8152602001807f4f6e6c7920756e646572206361707461696e2773206f7264657273000000000081525060200191505060405180910390fd5b61074681610813565b50565b60018054600181600116156101000203166002900480601f0160208091040260200160405190810160405280929190818152602001828054600181600116156101000203166002900480156107df5780601f106107b4576101008083540402835291602001916107df565b820191906000526020600020905b8154815290600101906020018083116107c257829003601f168201915b505050505081565b60025481565b600360009054906101000a900473ffffffffffffffffffffffffffffffffffffffff1681565b8073ffffffffffffffffffffffffffffffffffffffff166352d1902d6040518163ffffffff167c010000000000000000000000000000000000000000000000000000000002815260040160206040518083038186803b15801561087557600080fd5b505afa158015610889573d6000803e3d6000fd5b505050506040513d602081101561089f57600080fd5b81019080805190602001909291905050507fc5f16f0fcc639fa48a6947836d9850f504798523bf8c9a3a87d5876cf622bcf7600102141515610949576040517f08c379a000000000000000000000000000000000000000000000000000000000815260040180806020018281038252600e8152602001807f4e6f7420636f6d70617469626c6500000000000000000000000000000000000081525060200191505060405180910390fd5b807fc5f16f0fcc639fa48a6947836d9850f504798523bf8c9a3a87d5876cf622bcf75550565b828054600181600116156101000203166002900490600052602060002090601f016020900481019282601f106109b057805160ff19168380011785556109de565b828001600101855582156109de579182015b828111156109dd5782518255916020019190600101906109c2565b5b5090506109eb91906109ef565b5090565b610a1191905b80821115610a0d5760008160009055506001016109f5565b5090565b9056fea165627a7a72305820d593fb14dac25f39ecf8c2bb66ae5fda7eb2f7ecef011075ef90ff6a637fb41f0029",
  "source": "pragma solidity ^0.5.1;\n\nimport \"./Proxiable.sol\";\nimport \"./ShipBuild.sol\";\n\ncontract ShipA is Proxiable, ShipBuild {\n\n    function launch(string memory  _name, address _captain) public onlyNewShip {\n        name = _name;\n        registry = \"NX01\";\n        captain = _captain;\n        fuelSupply = 3;\n    }\n\n    function travel() public {\n        require(fuelSupply > 0, \"No Fuel Left\");\n        fuelSupply--;\n    }\n\n    function abandonShipTo(address newShip) public isCaptain {\n        updateCodeAddress(newShip);\n    }\n\n    modifier isCaptain() {\n        require(msg.sender == captain, \"Only under captain's orders\");\n        _;\n    }\n    modifier onlyNewShip() {\n        require(captain == address(0), \"Tread lightly corporal!\");\n        _;\n    }\n}\n",
  "sourcePath": "/home/thisguy/repos/proxy_101/contracts/ShipA.sol",
  "compiler": {
    "name": "solc",
    "version": "0.5.1+commit.c8a2cb62.Emscripten.clang"
  },
  "schemaVersion": "3.0.1",
  "updatedAt": "2019-08-04T16:15:11.870Z",
  "devdoc": {
    "methods": {}
  },
  "userdoc": {
    "methods": {}
  }
}