{
  "contractName": "ShipB",
  "abi": [
    {
      "constant": true,
      "inputs": [],
      "name": "name",
      "outputs": [
        {
          "name": "",
          "type": "string"
        }
      ],
      "payable": false,
      "stateMutability": "view",
      "type": "function",
      "signature": "0x06fdde03"
    },
    {
      "constant": false,
      "inputs": [
        {
          "name": "_name",
          "type": "string"
        },
        {
          "name": "_captain",
          "type": "address"
        }
      ],
      "name": "launch",
      "outputs": [],
      "payable": false,
      "stateMutability": "nonpayable",
      "type": "function",
      "signature": "0x1e4dacbb"
    },
    {
      "constant": true,
      "inputs": [],
      "name": "proxiableUUID",
      "outputs": [
        {
          "name": "",
          "type": "bytes32"
        }
      ],
      "payable": false,
      "stateMutability": "pure",
      "type": "function",
      "signature": "0x52d1902d"
    },
    {
      "constant": false,
      "inputs": [],
      "name": "travel",
      "outputs": [],
      "payable": false,
      "stateMutability": "nonpayable",
      "type": "function",
      "signature": "0x54d7226e"
    },
    {
      "constant": false,
      "inputs": [
        {
          "name": "newShip",
          "type": "address"
        }
      ],
      "name": "abandonShipTo",
      "outputs": [],
      "payable": false,
      "stateMutability": "nonpayable",
      "type": "function",
      "signature": "0x6334229b"
    },
    {
      "constant": true,
      "inputs": [],
      "name": "registry",
      "outputs": [
        {
          "name": "",
          "type": "string"
        }
      ],
      "payable": false,
      "stateMutability": "view",
      "type": "function",
      "signature": "0x7b103999"
    },
    {
      "constant": true,
      "inputs": [],
      "name": "fuelSupply",
      "outputs": [
        {
          "name": "",
          "type": "uint256"
        }
      ],
      "payable": false,
      "stateMutability": "view",
      "type": "function",
      "signature": "0xbf61aa74"
    },
    {
      "constant": true,
      "inputs": [
        {
          "name": "",
          "type": "uint256"
        }
      ],
      "name": "previousCaptains",
      "outputs": [
        {
          "name": "",
          "type": "address"
        }
      ],
      "payable": false,
      "stateMutability": "view",
      "type": "function",
      "signature": "0xedfdf078"
    },
    {
      "constant": true,
      "inputs": [],
      "name": "captain",
      "outputs": [
        {
          "name": "",
          "type": "address"
        }
      ],
      "payable": false,
      "stateMutability": "view",
      "type": "function",
      "signature": "0xf55ebb8f"
    },
    {
      "constant": false,
      "inputs": [
        {
          "name": "fuel",
          "type": "uint256"
        }
      ],
      "name": "refuel",
      "outputs": [],
      "payable": false,
      "stateMutability": "nonpayable",
      "type": "function",
      "signature": "0xee2e0ac8"
    },
    {
      "constant": false,
      "inputs": [
        {
          "name": "newCaptain",
          "type": "address"
        }
      ],
      "name": "promoteToCaptain",
      "outputs": [],
      "payable": false,
      "stateMutability": "nonpayable",
      "type": "function",
      "signature": "0xb0a094bb"
    },
    {
      "constant": true,
      "inputs": [],
      "name": "getCaptains",
      "outputs": [
        {
          "name": "captains",
          "type": "address[]"
        }
      ],
      "payable": false,
      "stateMutability": "view",
      "type": "function",
      "signature": "0xc5287966"
    }
  ],
  "bytecode": "0x608060405234801561001057600080fd5b50610f1f806100206000396000f3fe6080604052600436106100b4576000357c01000000000000000000000000000000000000000000000000000000009004806306fdde03146100b95780631e4dacbb1461014957806352d1902d1461023157806354d7226e1461025c5780636334229b146102735780637b103999146102c4578063b0a094bb14610354578063bf61aa74146103a5578063c5287966146103d0578063edfdf0781461043c578063ee2e0ac8146104b7578063f55ebb8f146104f2575b600080fd5b3480156100c557600080fd5b506100ce610549565b6040518080602001828103825283818151815260200191508051906020019080838360005b8381101561010e5780820151818401526020810190506100f3565b50505050905090810190601f16801561013b5780820380516001836020036101000a031916815260200191505b509250505060405180910390f35b34801561015557600080fd5b5061022f6004803603604081101561016c57600080fd5b810190808035906020019064010000000081111561018957600080fd5b82018360208201111561019b57600080fd5b803590602001918460018302840111640100000000831117156101bd57600080fd5b91908080601f016020809104026020016040519081016040528093929190818152602001838380828437600081840152601f19601f820116905080830192505050505050509192919290803573ffffffffffffffffffffffffffffffffffffffff1690602001909291905050506105e7565b005b34801561023d57600080fd5b5061024661075d565b6040518082815260200191505060405180910390f35b34801561026857600080fd5b50610271610788565b005b34801561027f57600080fd5b506102c26004803603602081101561029657600080fd5b81019080803573ffffffffffffffffffffffffffffffffffffffff169060200190929190505050610817565b005b3480156102d057600080fd5b506102d96108e8565b6040518080602001828103825283818151815260200191508051906020019080838360005b838110156103195780820151818401526020810190506102fe565b50505050905090810190601f1680156103465780820380516001836020036101000a031916815260200191505b509250505060405180910390f35b34801561036057600080fd5b506103a36004803603602081101561037757600080fd5b81019080803573ffffffffffffffffffffffffffffffffffffffff169060200190929190505050610986565b005b3480156103b157600080fd5b506103ba610b17565b6040518082815260200191505060405180910390f35b3480156103dc57600080fd5b506103e5610b1d565b6040518080602001828103825283818151815260200191508051906020019060200280838360005b8381101561042857808201518184015260208101905061040d565b505050509050019250505060405180910390f35b34801561044857600080fd5b506104756004803603602081101561045f57600080fd5b8101908080359060200190929190505050610bfe565b604051808273ffffffffffffffffffffffffffffffffffffffff1673ffffffffffffffffffffffffffffffffffffffff16815260200191505060405180910390f35b3480156104c357600080fd5b506104f0600480360360208110156104da57600080fd5b8101908080359060200190929190505050610c3c565b005b3480156104fe57600080fd5b50610507610ccc565b604051808273ffffffffffffffffffffffffffffffffffffffff1673ffffffffffffffffffffffffffffffffffffffff16815260200191505060405180910390f35b60008054600181600116156101000203166002900480601f0160208091040260200160405190810160405280929190818152602001828054600181600116156101000203166002900480156105df5780601f106105b4576101008083540402835291602001916105df565b820191906000526020600020905b8154815290600101906020018083116105c257829003601f168201915b505050505081565b600073ffffffffffffffffffffffffffffffffffffffff16600360009054906101000a900473ffffffffffffffffffffffffffffffffffffffff1673ffffffffffffffffffffffffffffffffffffffff161415156106ad576040517f08c379a00000000000000000000000000000000000000000000000000000000081526004018080602001828103825260178152602001807f5472656164206c696768746c7920636f72706f72616c2100000000000000000081525060200191505060405180910390fd5b81600090805190602001906106c3929190610e4e565b506040805190810160405280600481526020017f4e583031000000000000000000000000000000000000000000000000000000008152506001908051906020019061070f929190610e4e565b5080600360006101000a81548173ffffffffffffffffffffffffffffffffffffffff021916908373ffffffffffffffffffffffffffffffffffffffff16021790555060036002819055505050565b60007fc5f16f0fcc639fa48a6947836d9850f504798523bf8c9a3a87d5876cf622bcf7600102905090565b6000600254111515610802576040517f08c379a000000000000000000000000000000000000000000000000000000000815260040180806020018281038252600c8152602001807f4e6f204675656c204c656674000000000000000000000000000000000000000081525060200191505060405180910390fd5b60026000815480929190600190039190505550565b600360009054906101000a900473ffffffffffffffffffffffffffffffffffffffff1673ffffffffffffffffffffffffffffffffffffffff163373ffffffffffffffffffffffffffffffffffffffff161415156108dc576040517f08c379a000000000000000000000000000000000000000000000000000000000815260040180806020018281038252601b8152602001807f4f6e6c7920756e646572206361707461696e2773206f7264657273000000000081525060200191505060405180910390fd5b6108e581610cf2565b50565b60018054600181600116156101000203166002900480601f01602080910402602001604051908101604052809291908181526020018280546001816001161561010002031660029004801561097e5780601f106109535761010080835404028352916020019161097e565b820191906000526020600020905b81548152906001019060200180831161096157829003601f168201915b505050505081565b600360009054906101000a900473ffffffffffffffffffffffffffffffffffffffff1673ffffffffffffffffffffffffffffffffffffffff163373ffffffffffffffffffffffffffffffffffffffff16141515610a4b576040517f08c379a000000000000000000000000000000000000000000000000000000000815260040180806020018281038252601b8152602001807f4f6e6c7920756e646572206361707461696e2773206f7264657273000000000081525060200191505060405180910390fd5b6004600360009054906101000a900473ffffffffffffffffffffffffffffffffffffffff1690806001815401808255809150509060018203906000526020600020016000909192909190916101000a81548173ffffffffffffffffffffffffffffffffffffffff021916908373ffffffffffffffffffffffffffffffffffffffff1602179055505080600360006101000a81548173ffffffffffffffffffffffffffffffffffffffff021916908373ffffffffffffffffffffffffffffffffffffffff16021790555050565b60025481565b6060600480549050604051908082528060200260200182016040528015610b535781602001602082028038833980820191505090505b50905060008090505b600480549050811015610bfa57600481815481101515610b7857fe5b9060005260206000200160009054906101000a900473ffffffffffffffffffffffffffffffffffffffff168282815181101515610bb157fe5b9060200190602002019073ffffffffffffffffffffffffffffffffffffffff16908173ffffffffffffffffffffffffffffffffffffffff16815250508080600101915050610b5c565b5090565b600481815481101515610c0d57fe5b906000526020600020016000915054906101000a900473ffffffffffffffffffffffffffffffffffffffff1681565b6002548160025401111515610cb9576040517f08c379a000000000000000000000000000000000000000000000000000000000815260040180806020018281038252600c8152602001807f416c72656164792066756c6c000000000000000000000000000000000000000081525060200191505060405180910390fd5b8060026000828254019250508190555050565b600360009054906101000a900473ffffffffffffffffffffffffffffffffffffffff1681565b8073ffffffffffffffffffffffffffffffffffffffff166352d1902d6040518163ffffffff167c010000000000000000000000000000000000000000000000000000000002815260040160206040518083038186803b158015610d5457600080fd5b505afa158015610d68573d6000803e3d6000fd5b505050506040513d6020811015610d7e57600080fd5b81019080805190602001909291905050507fc5f16f0fcc639fa48a6947836d9850f504798523bf8c9a3a87d5876cf622bcf7600102141515610e28576040517f08c379a000000000000000000000000000000000000000000000000000000000815260040180806020018281038252600e8152602001807f4e6f7420636f6d70617469626c6500000000000000000000000000000000000081525060200191505060405180910390fd5b807fc5f16f0fcc639fa48a6947836d9850f504798523bf8c9a3a87d5876cf622bcf75550565b828054600181600116156101000203166002900490600052602060002090601f016020900481019282601f10610e8f57805160ff1916838001178555610ebd565b82800160010185558215610ebd579182015b82811115610ebc578251825591602001919060010190610ea1565b5b509050610eca9190610ece565b5090565b610ef091905b80821115610eec576000816000905550600101610ed4565b5090565b9056fea165627a7a723058201dfb0c4785e6ba11323f265d3fa90b2d5c51d0ef6ece054689b12562ae56e3a70029",
  "source": "pragma solidity ^0.5.1;\n\nimport \"./NewShipBuild.sol\";\nimport \"./ShipA.sol\";\n\ncontract ShipB is NewShipBuild, ShipA {\n    \n    function refuel(uint256 fuel) public {\n        require(fuelSupply + fuel > fuelSupply, \"Already full\");\n        fuelSupply += fuel;\n    }\n    \n    function promoteToCaptain(address newCaptain) public isCaptain {\n        previousCaptains.push(captain);\n        captain = newCaptain;\n    }\n    \n    function getCaptains () public view returns (address[] memory captains ) {\n        captains = new address[](previousCaptains.length);\n        for(uint256 i = 0; i < previousCaptains.length; i++) {\n            captains[i] = previousCaptains[i];\n        }\n    }\n}\n",
  "sourcePath": "/home/thisguy/repos/proxy_101/contracts/ShipB.sol",
  "compiler": {
    "name": "solc",
    "version": "0.5.1+commit.c8a2cb62.Emscripten.clang"
  },
  "schemaVersion": "3.0.1",
  "updatedAt": "2019-08-04T16:15:11.872Z",
  "devdoc": {
    "methods": {}
  },
  "userdoc": {
    "methods": {}
  }
}